:100000000C945E000C9486000C9486000C94860080
:100010000C9486000C9486000C9486000C94860048
:100020000C9486000C9486000C9486000C94860038
:100030000C9486000C9486000C9486000C94860028
:100040000C941C040C9486000C94EA030C94C403D6
:100050000C9486000C9486000C9486000C94860008
:100060000C9486000C948600000000080002010039
:100070000003040700000000000000000000000072
:10008000250028002B0000000000240027002A0083
:10009000040404040404040402020202020203032E
:1000A0000303030301020408102040800102040836
:1000B00010200102040810206604B80511241FBE98
:1000C000CFEFD8E0DEBFCDBF11E0A0E0B1E0E8E2C5
:1000D000F0E102C005900D92A832B107D9F721E0F6
:1000E000A8E2B1E001C01D92A03FB207E1F710E025
:1000F000CDE5D0E004C02197FE010E94BE05CC35BD
:10010000D107C9F70E94C1040C9407080C940000A1
:1001100090E0FC01EC55FF4F2491FC01E057FF4FAC
:100120008491882399F090E0880F991FFC01EA5789
:10013000FF4FA591B491FC01E458FF4F8591949134
:100140008FB7F894EC91E22BEC938FBF08952FB703
:10015000F89480912D0190912E01A0912F01B091E2
:1001600030012FBF8093390190933A01A0933B0156
:10017000B0933C01E0913101F09132010680F781AA
:10018000E02D81E391E0099597FF26C02FB7F89401
:1001900080912D0190912E01A0912F01B0913001FD
:1001A0002FBF4091390150913A0160913B0170910C
:1001B0003C01841B950BA60BB70B40913501509168
:1001C0003601609137017091380184179507A607B1
:1001D000B70780F28FEF9FEF08950895CF92DF92D7
:1001E000EF92FF920F931F93CF93DF936C017A01ED
:1001F0008B01C0E0D0E0CE15DF0589F0D8016D910C
:100200008D01D601ED91FC910190F081E02DC601A8
:100210000995892B11F47E0102C02196ECCFC7010C
:10022000DF91CF911F910F91FF90EF90DF90CF90D2
:100230000895FC01918D828D981761F0828DDF0108
:10024000A80FB11D5D968C91928D9F5F9F73928FC9
:1002500090E008958FEF9FEF0895FC01918D828DBE
:10026000981731F0828DE80FF11D858D90E008958B
:100270008FEF9FEF0895FC01918D228D892F90E0E3
:10028000805C9F4F821B91098F739927089581E3AA
:1002900091E00E943B0121E0892B09F420E0822FAC
:1002A0000895FC01848DDF01A80FB11DA35ABF4F33
:1002B0002C91848D90E001968F739927848FA68965
:1002C000B7892C93A089B1898C9180648C93938D8C
:1002D000848D981306C00288F389E02D80818F7D7C
:1002E00080830895EF92FF920F931F93CF93DF9334
:1002F000EC0181E0888F9B8D8C8D981305C0E88977
:10030000F989808185FD24C0F62E0B8D10E00F5FEA
:100310001F4F0F731127E02E8C8DE8120CC00FB603
:1003200007FCFACFE889F989808185FFF5CFCE01F6
:100330000E945101F1CF8B8DFE01E80FF11DE35AB0
:10034000FF4FF0820B8FEA89FB898081806207C0B2
:10035000EE89FF896083E889F989808180648083E0
:1003600081E090E0DF91CF911F910F91FF90EF908E
:100370000895CF93DF93EC01888D8823C9F0EA8933
:10038000FB89808185FD05C0A889B9898C9186FD8E
:100390000FC00FB607FCF5CF808185FFF2CFA8898B
:1003A000B9898C9185FFEDCFCE010E945101E7CF35
:1003B000DF91CF91089580E090E0892B29F00E9491
:1003C000470181110C940000089590E0FC01E85968
:1003D000FF4F3491FC01EC55FF4F2491FC01E05795
:1003E000FF4FE491EE2309F43BC0332339F133305E
:1003F00091F038F43130A9F0323001F584B58F7DB9
:1004000012C0373091F03830A1F03430B9F4809117
:1004100080008F7D03C0809180008F778093800063
:100420000DC084B58F7784BD09C08091B0008F77EF
:1004300003C08091B0008F7D8093B000F0E0EE0F9C
:10044000FF1FE458FF4FA591B4918FB7F894EC913A
:10045000611103C020952E2301C02E2B2C938FBF3A
:100460000895CF93DF93EC0160E08E810E94E50157
:1004700061E08E810E94E50160E08E810E94E501CD
:100480008BE891E00197F1F7DF91CF910895CF923A
:10049000DF92EF92FF920F931F93CF93DF937C0134
:1004A0006C0187E0C80ED11CC0E0D0E0062F10E040
:1004B000B8010C2E02C0759567950A94E2F7617039
:1004C000F60181916F010E94E5012196C430D105AA
:1004D00079F7C701DF91CF911F910F91FF90EF90B6
:1004E000DF90CF900C943102CF92DF92EF92FF9287
:1004F0000F931F93CF93DF93EC01F62E642F8C8123
:100500000E94E5018D818F3F19F060E00E94E501B6
:100510008F850F2D10E084FF25C06E0187E0C80E87
:10052000D11CE12CF12CB8010E2C02C075956795F9
:100530000A94E2F76170F60181916F010E94E50172
:10054000FFEFEF1AFF0A88E0E816F10461F7CE0129
:10055000DF91CF911F910F91FF90EF90DF90CF909F
:100560000C943102B80184E0759567958A95E1F79E
:10057000CE010E9447026F2DCE01DF91CF911F91D6
:100580000F91FF90EF90DF90CF900C94470241E0E5
:100590000E94740281E090E0089540E00C9474029F
:1005A000EF92FF920F931F93CF93DF93EC014230B2
:1005B00018F08F8588608F874B8B1C8A80E48D8B29
:1005C0006E8B70E0605C7F4F6F8B8C810E94880027
:1005D0008D818F3F11F00E9488008E810E948800DB
:1005E0007E0187E0E80EF11C00E010E08F8584FDBD
:1005F00003C084E090E002C088E090E0081719078B
:1006000044F4F70181917F010E9488000F5F1F4F22
:10061000EDCF8BE39DE00197F1F760E08C810E94C4
:10062000E50160E08E810E94E5018D818F3F19F028
:1006300060E00E94E5016F8564FD1DC063E0CE01AE
:100640000E9447020BE416E4C8010197F1F763E04A
:10065000CE010E944702C8010197F1F763E0CE0185
:100660000E94470283E592E00197F1F762E0CE0134
:100670000E94470216C06062CE010E94CD028BE448
:1006800096E40197F1F76F856062CE010E94CD027A
:1006900083E592E00197F1F76F856062CE010E94D9
:1006A000CD026F856062CE010E94CD0284E0888B0E
:1006B0006CE0CE010E94CD0261E0CE010E94CD022D
:1006C0008BE39FE10197F1F782E0898B66E0CE0131
:1006D000DF91CF911F910F91FF90EF900C94CD027D
:1006E0000E94BB070F931F93CF93DF93EC01888188
:1006F0009981009729F02A813B812617370788F4D2
:100700008B016F5F7F4F0E94F106009761F0998324
:1007100088831B830A832C813D81232B11F4FC01E8
:10072000108281E001C080E0DF91CF911F910F9195
:100730000895EF92FF920F931F93CF93DF93EC01F5
:100740007B018A01BA010E947203288139818111DB
:100750000DC02115310519F0C9010E9459061982F1
:1007600018821D821C821B821A8206C01D830C8384
:10077000B701C9010E94C907CE01DF91CF911F9136
:100780000F91FF90EF9008951F920F920FB60F9266
:1007900011242F933F934F935F936F937F938F9386
:1007A0009F93AF93BF93EF93FF9381E391E00E94F8
:1007B0005101FF91EF91BF91AF919F918F917F91E7
:1007C0006F915F914F913F912F910F900FBE0F90BE
:1007D0001F9018951F920F920FB60F9211242F930E
:1007E0008F939F93EF93FF93E0914101F09142012A
:1007F0008081E0914701F091480182FD12C0908113
:1008000080914A018F5F8F7320914B01821751F0C5
:10081000E0914A01F0E0EF5CFE4F958F80934A0132
:1008200001C08081FF91EF919F918F912F910F9047
:100830000FBE0F901F9018951F920F920FB60F9238
:1008400011242F933F938F939F93AF93BF938091E6
:100850002D0190912E01A0912F01B0913001309186
:100860002C0123E0230F2D3720F40196A11DB11D8B
:1008700005C026E8230F0296A11DB11D20932C016F
:1008800080932D0190932E01A0932F01B0933001FE
:100890008091280190912901A0912A01B0912B010A
:1008A0000196A11DB11D8093280190932901A09369
:1008B0002A01B0932B01BF91AF919F918F913F91EE
:1008C0002F910F900FBE0F901F901895E1E3F1E06C
:1008D0001382128288EE93E0A0E0B0E084839583D7
:1008E000A683B7838AE091E09183808385EC90E0D2
:1008F0009587848784EC90E09787868780EC90E0EA
:10090000918B808B81EC90E0938B828B82EC90E0DA
:10091000958B848B86EC90E0978B868B118E128E54
:10092000138E148EE4EDF1E0138212828AE191E0DD
:10093000918380838DE084838CE085838BE0868344
:100940008AE0878389E0808788E0818787E08287E3
:100950001386148615861686178641E060E1CF015E
:100960000E94D002EEECF1E011821082138212821A
:100970001582148240E050E067E271E0CF010C94F0
:100980009903CF93DF93CDB7DEB728970FB6F894CE
:10099000DEBF0FBECDBF789484B5826084BD84B5C0
:1009A000816084BD85B5826085BD85B5816085BD6A
:1009B00080916E00816080936E0010928100809122
:1009C00081008260809381008091810081608093AA
:1009D0008100809180008160809380008091B100CF
:1009E00084608093B1008091B00081608093B000FA
:1009F00080917A00846080937A0080917A0082608E
:100A000080937A0080917A00816080937A0080914F
:100A10007A00806880937A001092C10044E064E11B
:100A200084ED91E00E94D002E091E701E33010F400
:100A3000E15001C0E2E0F0E0EC52FE4F64896F5FEC
:100A4000606884ED91E00E94CD0249E050E06EE1E3
:100A500071E084ED91E00E94EE008BE3E82E8FE1DF
:100A6000F82E81E391E00E943B01181619060CF064
:100A70007CC01A8219821C821B821E821D8240E069
:100A800050E067E271E0CE0101960E9499030E9456
:100A9000A70097FD1BC08F8318860D811E810F5FF5
:100AA0001F4FB801CE0101960E947203882379F38B
:100AB00029813A818D819E81BE01695F7F4F820FBE
:100AC000931F0E94C9071E830D83E1CF8091CE0141
:100AD0009091CF010097C9F069817A816115710504
:100AE00091F04091D0015091D1012D813E8142176A
:100AF000530748F00E94C9078D819E819093D301CE
:100B00008093D20118C00E94590689819A819093DE
:100B1000CF018093CE018B819C819093D1018093F2
:100B2000D0018D819E819093D3018093D2011A824E
:100B300019821C821B821E821D8289819A810E94D9
:100B4000590661E084ED91E00E94CD02C701019752
:100B5000F1F74091D2015091D3016091CE01709193
:100B6000CF0184ED91E00E94EE000E94DB0179CF7D
:100B70008091CE019091CF010C945906EE0FFF1F8A
:100B80000590F491E02D0994CF93DF938230910585
:100B900010F482E090E0E091EE01F091EF0120E0AE
:100BA00030E0C0E0D0E0309711F14081518148172A
:100BB0005907C0F04817590761F482819381209743
:100BC00019F09B838A832BC09093EF018093EE01F1
:100BD00026C02115310519F04217530718F49A0160
:100BE000BE01DF01EF010280F381E02DDCCF211592
:100BF000310509F1281B390B2430310590F4129688
:100C00008D919C9113976115710521F0FB019383E0
:100C1000828304C09093EF018093EE01FD01329630
:100C200044C0FD01E20FF31F8193919322503109DB
:100C30002D933C933AC02091EC013091ED01232B90
:100C400041F420910201309103013093ED01209392
:100C5000EC0120910001309101012115310541F491
:100C60002DB73EB74091040150910501241B350B6F
:100C7000E091EC01F091ED01E217F307A0F42E1BD7
:100C80003F0B2817390778F0AC014E5F5F4F2417F0
:100C9000350748F04E0F5F1F5093ED014093EC0174
:100CA0008193919302C0E0E0F0E0CF01DF91CF911A
:100CB00008950F931F93CF93DF93009709F48CC08F
:100CC000FC013297138212820091EE011091EF0124
:100CD0000115110581F420813181820F931F20912C
:100CE000EC013091ED012817390779F5F093ED010A
:100CF000E093EC0171C0D80140E050E0AE17BF07AF
:100D000050F412962D913C911397AD0121153105A8
:100D100009F1D901F3CF9D01DA0133832283608188
:100D20007181860F971F8217930769F4EC01288160
:100D30003981260F371F2E5F3F4F318320838A81F1
:100D40009B8193838283452B29F4F093EF01E093F9
:100D5000EE0142C01396FC93EE931297ED01499178
:100D600059919E01240F351FE217F30771F480811A
:100D70009181840F951F029611969C938E93828188
:100D8000938113969C938E931297E0E0F0E0D80144
:100D900012968D919C911397009719F0F8018C0190
:100DA000F6CF8D919C9198012E5F3F4F820F931F3C
:100DB0002091EC013091ED012817390769F4309743
:100DC00029F41092EF011092EE0102C013821282F8
:100DD0001093ED010093EC01DF91CF911F910F91E2
:100DE0000895A0E0B0E0E7EFF6E00C94D407EC0142
:100DF000009721F4CB010E94C405B8C0FC01E60FA6
:100E0000F71F9C0122503109E217F30708F4ACC028
:100E1000D9010D911C91119706171707B0F00530F5
:100E2000110508F49FC0C80104978617970708F4B6
:100E300099C002501109061B170B019311936D9372
:100E40007C93CF010E9459068DC05B01A01AB10AA4
:100E50004C01800E911EA091EE01B091EF0140E097
:100E600050E0E12CF12C109709F44AC0A815B905FF
:100E7000D1F56D907C901197630182E0C80ED11C72
:100E8000CA14DB0480F1A3014A195B096A0182E0FC
:100E9000C80ED11C1296BC9012971396AC91B5E077
:100EA000CB16D10440F0B282A38351834083D90191
:100EB0006D937C930AC00E5F1F4FC301800F911F7B
:100EC000F90191838083EB2DFA2FE114F10431F0C5
:100ED000D7011396FC93EE93129744C0F093EF0161
:100EE000E093EE013FC08D919C91119748175907EF
:100EF00008F4AC017D0112960D90BC91A02DB3CFEA
:100F00008091EC019091ED0188159905E1F4461767
:100F10005707C8F48091000190910101009741F4B6
:100F20008DB79EB74091040150910501841B950B2C
:100F3000E817F907C8F4F093ED01E093EC01F9012B
:100F4000718360830FC0CB010E94C4057C010097B0
:100F500059F0A801BE010E94C007CE010E945906A7
:100F6000C70104C0CE0102C080E090E0CDB7DEB77B
:100F7000EEE00C94F00781E090E0F8940C94070800
:100F8000FB01DC0102C001900D9241505040D8F7A6
:100F90000895FB01DC0101900D920020E1F7089516
:100FA0002F923F924F925F926F927F928F929F9279
:100FB000AF92BF92CF92DF92EF92FF920F931F9367
:100FC000CF93DF93CDB7DEB7CA1BDB0B0FB6F89418
:100FD000DEBF0FBECDBF09942A88398848885F8458
:100FE0006E847D848C849B84AA84B984C884DF80C9
:100FF000EE80FD800C811B81AA81B981CE0FD11DAD
:101000000FB6F894DEBF0FBECDBFED01089510E01E
:10101000CDE5D0E004C0FE010E94BE052196CE358C
:08102000D107C9F7F894FFCFD6
:101028000000F0018000000000007201EE003B01AA
:1010380019012D01B90100000000C702EE00426944
:08104800656E76656E756500AA
:00000001FF
